:020000040800F2
:1000000050070020310200085D090008DB080008E5
:1000100059090008F1060008E3120008000000007A
:10002000000000000000000000000000590B000864
:10003000A107000800000000ED090008FD0C000801
:100040004B0200084B0200084B0200084B0200085C
:100050004B0200084B0200084B0200084B0200084C
:100060004B0200084B0200084B0200084B0200083C
:100070004B0200084B0200084B0200084B0200082C
:100080004B0200084B0200084B0200084B0200081C
:100090004B0200084B0200084B0200084B0200080C
:1000A0004B0200084B0200084B0200084B020008FC
:1000B0004B0200084B0200084B0200084B020008EC
:1000C0004B0200084B0200084B0200084B020008DC
:1000D0004B02000839100008C11000084B0200084C
:1000E0004B0200084B0200084B0200084B020008BC
:1000F0004B020008650E00084B0200084B02000886
:100100004B0200084B0200084B0200084B0200089B
:100110004B0200084B0200084B0200084B0200088B
:100120004B0200084B0200084B0200084B0200087B
:100130004B0200084B0200084B0200084B0200086B
:100140004B0200084B0200084B0200084B0200085B
:100150004B0200084B0200084B0200084B0200084B
:100160004B0200084B0200084B0200084B0200083B
:100170004B0200084B0200084B0200084B0200082B
:100180004B0200084B02000800F002F800F041F8B2
:100190000AA090E8000C82448344AAF10107DA45E2
:1001A00001D100F036F8AFF2090EBAE80F0013F0F3
:1001B000010F18BFFB1A43F0010318476C1400002D
:1001C0008C140000103A24BF78C878C1FAD85207BE
:1001D00024BF30C830C144BF04680C6070470000C1
:1001E0000023002400250026103A28BF78C1FBD840
:1001F000520728BF30C148BF0B607047642900F028
:100200007980002070471FB501F008FA1FBD10B5B6
:1002100010BD00F037F91146FFF7F5FF01F014F9B2
:1002200000F055F903B4FFF7F2FF03BC01F05BF8EF
:100230000948804709480047FEE7FEE7FEE7FEE77A
:10024000FEE7FEE7FEE7FEE7FEE7FEE704480549B6
:10025000054A064B70470000010D0008890100089F
:1002600050010020500700205003002050030020C0
:10027000704700000FB4044910B503AA029800F0BB
:10028000D3F810BC5DF814FB140000202DE9F041F8
:100290000E460446002020622046E168884730B3BD
:1002A000252805D0D4E901219047206A401CF2E7B7
:1002B000E168204600278847050018D0A5F14100D5
:1002C000192802D820354FF40067324629462046C7
:1002D0002760FFF793FF40B1012804D0F61D26F0F8
:1002E00007060836D8E7361DD6E72846DAE7206A3B
:1002F000BDE8F0812DE9F04106460024106875291B
:10030000314616A510D0AFF30080002802DA404233
:1003100013A507E031688A0701D512A502E0490755
:1003200004D511A5012401E0AFF3008000210A22C9
:1003300006F1240709E0B0FBF2FCB0FBF2F302FB8C
:100340001C00303078541846491C0028F3D123464D
:100350002A463046BDE8F04100F00CB8000000002D
:100360002D0000002B0000002000000070477047A7
:10037000704770472DE9F0470D469946924604466E
:1003800000F124080168880604D5E06921F0100115
:10039000216000E00120A84201DD471B00E00027AA
:1003A000A1697A1902EB0900081AA0612078C00639
:1003B00002D42046AFF30080002608E0D4E90121F2
:1003C0001AF806009047206A401C761C20624E45B1
:1003D000F4DB2078C0060AD52046AFF3008006E0A3
:1003E000D4E9012130209047206A401C2062381E49
:1003F000A7F10107F4DC07E0D4E9012118F80500B2
:100400009047206A401C2062281EA5F10105F3DCFC
:100410002046AFF300802078000602D50220BDE818
:10042000F0870120FBE70000074B70B50D467B44C9
:1004300000F011F80446284600F020F810B14FF003
:10044000FF3070BD204670BDFB0F000001694A1CE3
:1004500002610878704700B58FB0CDE90131002105
:10046000059105497944CDE9031011466846FFF727
:100470000DFF0FB000BD0000E5FFFFFF007B00F0A7
:1004800080007047754600F029F8AE4605006946C1
:10049000534620F00700854618B020B5FFF7D6FE7A
:1004A000BDE820404FF000064FF000074FF0000875
:1004B0004FF0000B21F00701AC46ACE8C009ACE8F6
:1004C000C009ACE8C009ACE8C0098D4670470446D5
:1004D000AFF300802046FFF7A5FE000000487047FC
:1004E000EC00002021B1826842F00102826003E04A
:1004F000826822F001028260704700000021084AF1
:100500001168084A1140D0E900231A4383681A434E
:10051000C3681A431143044AC2F804137047000029
:1005200004230140E030FCFF0020014010B5012110
:10053000080200F08DFA00214FF4807000F088FA74
:1005400010BD0146C86C80B2704702460020136897
:100550000B400BB1012000E00020704730B502468F
:10056000002000235068104C20400D790C6844EAAC
:1005700005242043506090680C4C2040D1E903547E
:100580002C438D682C434D7944EA45042043906008
:10059000D06A20F470000C7D641EE4B2234340EA6C
:1005A0000350D06230BD0000FFFEFFFCFDF7FFC02E
:1005B000F0B504460D4600200021092D11DDE0684C
:1005C000A5F10A0606EB4607072606FA07F1884357
:1005D000A5F10A0606EB460603FA06F10843E060B9
:1005E0000CE0206905EB4507072606FA07F188436A
:1005F00005EB450603FA06F108432061072A0FDAE6
:10060000606B561E06EB86071F2606FA07F1884325
:10061000561E06EB860605FA06F10843606322E0E3
:100620000D2A0FDA206BD61F06EB86071F2606FA67
:1006300007F18843D61F06EB860605FA06F1084344
:10064000206310E0E06AA2F10D0606EB86071F2684
:1006500006FA07F18843A2F10D0606EB860605FAB5
:1006600006F10843E062F0BD816841F0804181609D
:100670007047000000B58DB00121084600F0B8F9C0
:100680000121080200F0D4F920200B9003208DF8FE
:10069000300000208DF833000BA9134800F081F8DA
:1006A000FFF744FF0020099007904FF48030089036
:1006B00000200A9007A8FFF721FF00208DF809000D
:1006C0000590039001208DF81800002001908DF80E
:1006D000080001A90548FFF741FF01210348FFF782
:1006E00001FF0DB000BD00000000024000200140ED
:1006F00000BFFEE770B5044600BF01210D4800F0C1
:10070000D0FB00200C49086001200C49C1F8A00270
:10071000142000F03FFE0A21064800F048FC04EBDC
:1007200084008500284600F035FE0021014800F0D5
:10073000B8FB70BD000400409802414200004142F5
:1007400015480088A0F5C57000280EDD1248008805
:10075000A0F5C57040F64901884206DA0E480088C7
:10076000A0F5C5700D49086015E00B48008841F2FE
:100770008A11081AB0F5805F06DD07480088A0F5E9
:10078000C5700649086006E003480088A0F5885057
:100790008A38024908607047200000201C000020B1
:1007A0007047F0B50A4600210023002400BF3DE059
:1007B000012505FA01F3156805EA03049C4234D1CA
:1007C00005684F000326BE40B543056015794E000D
:1007D000B5400668354305601579012D02D01579BD
:1007E000022D16D185684F000326BE40B5438560B3
:1007F00055794E00B54086683543856045680126C9
:100800008E40B5434560456896798E40B6B2354313
:100810004560C5684F000326BE40B543C560D57925
:100820004E00B540C6683543C560491C1029BFD38A
:10083000F0BDF0B5002300244D07ED0E02FA05F3DC
:10084000CE1000F1200555F826504E07F70E0F2662
:10085000BE40B543CF1000F1200646F82750CE1019
:1008600000F1200555F8265045EA0304CE1000F1AA
:10087000200545F82640F0BD0183704710B50446B9
:100880000723012221460848FFF792FE0648FFF79A
:10089000EBFE00BF02210448FFF757FE0028F9D005
:1008A0000148FFF74EFE10BD002001402DE9F04148
:1008B00007460C460025002608E03846FFF7DEFF15
:1008C0000544642000F066FD701CC6B2A642F4DB4D
:1008D000B5FBF4F080B2BDE8F08100BFFEE7000098
:1008E0004AF6AA2001490860704700000030004025
:1008F0001CB50121084600F07BF840200090012043
:100900008DF8040000208DF8060001208DF8070006
:1009100002208DF8050069460E48FFF742FF40218E
:100920000C48FFF7A9FF8020009001208DF80400FB
:1009300000208DF8060001208DF8070002208DF8B8
:10094000050069460348FFF72CFF80210148FFF7A7
:1009500093FF1CBD0000024000BFFEE7704700008F
:1009600070B5002100230F22C4781CB3174C2468F3
:1009700004F4E064C4F5E064C4F30721C1F10404A5
:10098000E3B20A4144789C40E1B2847814402143A8
:100990000C07210E0E4C05786155047804F01F05F4
:1009A0000124AC4005786D11AD0005F1E025C5F8D6
:1009B000004109E0047804F01F050124AC40054D16
:1009C0000678761145F8264070BD00000CED00E079
:1009D00000E400E080E100E002490143024A1160C6
:1009E000704700000000FA050CED00E070470000C1
:1009F00029B1064A12680243044B1A6004E0034A14
:100A000012688243014B1A60704700003038024080
:100A100029B1064A12680243044B1A6004E0034AF3
:100A200012688243014B1A60704700004038024050
:100A300029B1064A12680243044B1A6004E0034AD3
:100A400012688243014B1A6070470000443802402C
:100A500029B1064A12680243044B1A6004E0034AB3
:100A600012688243014B1A6070470000243802402C
:100A7000F0B5002100220024022500260223324F77
:100A80003F6807F00C0121B1042905D0082937D1AE
:100A900005E02E4F076036E02D4F076033E02A4F08
:100AA0003F1F3F68C7F38056274F3F1F3F6807F03F
:100AB0003F036EB1264FB7FBF3F7DFF88CC0ACF104
:100AC000040CDCF800C0CCF3881C07FB0CF40CE031
:100AD0001E4FB7FBF3F7DFF870C0ACF1040CDCF885
:100AE00000C0CCF3881C07FB0CF4174F3F1F3F6876
:100AF000C7F301477F1C7D00B4FBF5F7076002E0F8
:100B0000124F076000BF00BF0F4F3F6807F0F001B2
:100B10000909104F7A5C0768D74047600A4F3F6861
:100B200007F4E051890A0B4F7A5C4768D740876029
:100B3000054F3F6807F46041490B064F7A5C4768F0
:100B4000D740C760F0BD0000083802400024F40020
:100B500000127A0000000020704700000CB5002051
:100B6000019000903448006840F4803032490860B9
:100B700000BF3148006800F4003000900198401C2C
:100B80000190009818B90198B0F5A04FF1D12A480A
:100B9000006800F4003010B10120009001E0002056
:100BA00000900098012846D123484030006840F06A
:100BB00080502149403108602048006840F440409E
:100BC0001E4908601C48083000681B49083108604D
:100BD0000846006840F4004008600846006840F499
:100BE000A05008601648091F0860081F006840F000
:100BF0008070091F086000BF0F48006800F0007097
:100C00000028F9D040F205700E4908600A48083003
:100C1000006820F0030008490831086008460068B1
:100C200040F00200086000BF03480830006800F090
:100C30000C000828F8D10CBD0038024000700040BC
:100C400008544007003C02401CB501210420FFF776
:100C5000CFFE4020009001208DF8040000208DF888
:100C6000060001208DF8070002208DF80500694676
:100C70001548FFF796FD40211348FFF7FDFD4FF49F
:100C80008070009001208DF8040000208DF806008F
:100C900001208DF8070002208DF8050069460A48FA
:100CA000FFF77FFD4FF480710748FFF7E5FD532103
:100CB000142000F089F8002004490860012004494C
:100CC000C1F8A0021CBD0000000802409802414289
:100CD00000004142042808D14FF0E021096941F0A9
:100CE00004014FF0E022116107E04FF0E0210969B3
:100CF00021F004014FF0E0221161704770470000BD
:100D000010B51548006840F4700013490860134896
:100D1000006840F001001149086000200F490831C7
:100D200008600E4800680E4908400C4908600D48EC
:100D3000091D0860081F006820F48020091F086052
:100D4000002006490C310860FFF708FF4FF00060F3
:100D500001498039086010BD88ED00E0003802408C
:100D6000FFFFF6FE103000241FB501210802FFF737
:100D70004FFE134802905320ADF804000020ADF858
:100D80000600ADF80C0001A90E4800F013F901228D
:100D900011460C4800F0A2F801210A4800F081F841
:100DA0002D208DF8000001208DF8010003208DF822
:100DB000020001208DF803006846FFF7D1FD1FBD3A
:100DC0009F8601000020004030B58BB004460D46E0
:100DD00001210220FFF71CFE01210420FFF708FE7D
:100DE0008020099002208DF8280003208DF829002A
:100DF00000208DF82A0001208DF82B0009A9174842
:100E0000FFF7CFFC022207211448FFF712FDADF8CF
:100E100018500020ADF81A000794ADF8200006A97C
:100E20000F4800F0C7F86020ADF804000220ADF8CC
:100E300010000120ADF8060001A9094800F058F89B
:100E40000821074800F0A6F80121054800F01AF82B
:100E50000121034800F025F80BB030BD0008024026
:100E60000004004010B50121054800F026F80128D3
:100E700005D10121024800F011F8FFF761FC10BD17
:100E80000020004021B1028842F08002028004E08C
:100E900002884FF67F731A4002807047CA4302826D
:100EA000704721B1028842F00102028004E002880A
:100EB0004FF6FE731A400280704730B5024600209C
:100EC00000230024158A05EA0103958905EA010437
:100ED00013B10CB1012000E0002030BD1AB18389AC
:100EE0000B43838102E083898B4383817047000039
:100EF00070B5002400220023058C4FF6EF763540B4
:100F00000584028C8388048B48F6FF752C404FF6CD
:100F1000FF452C400D884FF6FF7606EA05252C4349
:100F20004FF6DF752A408D8906EA05152A434D885C
:100F300006EA05152A43154DA84202D0144DA842D1
:100F40001DD14FF67F752A40CD894FF6FF7606EA10
:100F500005152A434FF6BF752A408D8806EA051508
:100F60002A434FF6FF352B404FF2FF752B400D8A79
:100F700006EA85052B434D8A06EA85052B438380C7
:100F800004838D688563028470BD00000000014009
:100F9000000401400A460021018B4FF2FF73194003
:100FA0004FF6FF7303EA02231943018370478163FD
:100FB0007047000000220288184B98420ED0184B50
:100FC00098420BD0B0F1804F08D0164B984205D014
:100FD000154B984202D0154B984204D14FF68F73AF
:100FE0001A404B881A43124B984207D0114B984233
:100FF00004D04FF6FF431A400B891A4302804B6816
:10100000C3620B880385054B984202D0044B98427B
:1010100001D18B7A0386012383827047000001404F
:10102000000401400004004000080040000C0040A3
:10103000001000400014004010B540F225511D483A
:1010400000F090F810B31B4800F046F9C4B21A48FB
:10105000008800F40040C8B91748008800F48040B8
:1010600060B10A2C03D000201349088020E0124808
:10107000008840F400401049088019E00D2C06D18A
:101080000D48008840F480400B49088010E00A4871
:101090000088C0F30D0009490C5407480088401C23
:1010A0000549088008460088C72801DD002008801F
:1010B00010BD000000100140180000202400002096
:1010C00010B540F225511E4800F04CF820B31C48E2
:1010D00000F002F9C4B21B48008800F40040D8B9FF
:1010E0001848008800F4804070B10A2C03D000201A
:1010F0001449088022E01348008840F40040114958
:101100000880FFF7EDFB19E00D2C06D10D48008893
:1011100040F480400B49088010E00A480088C0F382
:101120000D0009490C5407480088401C05490880F7
:1011300008460088C72801DD0020088010BD000097
:1011400000440040180000202400002021B18289C2
:1011500042F40052828104E082894DF6FF731A4006
:101160008281704770B502460024002300250020CC
:1011700040F66A16B14200D100BFC1F3421501F03A
:101180001F03012606FA03F3012D02D1968933408D
:1011900006E0022D02D1168A334001E0968A3340E0
:1011A0000C12012606FA04F41688344013B10CB16F
:1011B000012000E0002070BDF0B5034600240026A9
:1011C0000025002040F66A17B94200D100BF18463A
:1011D000C1F3421401F01F06012707FA06F5012C9E
:1011E00001D10C3004E0022C01D1103000E01430A9
:1011F0001AB107682F43076002E00768AF43076032
:10120000F0BD00002DE9FF4705460E460024A1462B
:1012100000BFA046B08900B100BF2C8A24F440541E
:10122000F08804432C82AC8941F20C608443B0887E
:1012300031890843718908430443AC81AC8A24F4A2
:101240004074B0890443AC826846FFF711FC204823
:10125000854202D01F48854202D1DDF80C9001E0A2
:10126000DDF80890A88900F4004040B109EBC900FE
:1012700000EB091031684900B0FBF1F707E009EB1A
:10128000C90000EB091031688900B0FBF1F7642058
:10129000B7FBF0F004012009642101FB1078A88954
:1012A00000F4004040B1322000EBC800B0FBF1F088
:1012B00000F00700044308E0322000EB081064212E
:1012C000B0FBF1F000F00F0004432C81BDE8FF8774
:1012D000001001400014014001468888C0F3080056
:1012E000704700BFFEE7014600BF704710B54FF4DE
:1012F000A060FFF771FBA82000F012F84FF4E13076
:1013000000F036F94FF4E13000F0DCF8FFF7B2F905
:10131000FFF7EEFAFFF798FCFFF726FD10BD00007F
:1013200010B504466FF00400FFF7D4FCE11704EB9E
:101330005171C1F3C701074A11701046007800EBE4
:101340004001C1EBC0104FF6FF7101EAC000024935
:10135000088010BD100000201200002070B5044667
:101360004FF4077094FBF0F0C6B24FF4077094FB93
:10137000F0F100FB114085B205E04FF4077000F07A
:101380002FF8701EC6B2002EF7D115B1284600F016
:1013900027F870BD0146114A12784A434FF0E02306
:1013A0005A6100229A611A46126942F001021A61DA
:1013B00000BF4FF0E022106900F001021AB100F402
:1013C0008032002AF5D04FF0E022126922F00102AB
:1013D0004FF0E0231A6100229A617047100000204C
:1013E0000146114A12884A434FF0E0235A61002215
:1013F0009A611A46126942F001021A6100BF4FF069
:10140000E022106900F001021AB100F48032002AD3
:10141000F5D04FF0E022126922F001024FF0E023F4
:101420001A6100229A6170471200002000BF054A2D
:10143000128802F04002002AF9D0C2B2014B9A8011
:1014400070470000001001400024FFF74FFF4FF4E9
:101450004860FFF74FF94FF4FA60FFF77FFF1BE09A
:1014600005210846FFF722FA0C4908800C4801685C
:101470000CA0FEF7FFFE601CC4B2282C0CDD0F4848
:101480000068C0430E49C1F898020846D0F89C0293
:10149000C043C1F89C020024E2E7000020000020C5
:1014A0001C000020446576696174696F6E5F416E4F
:1014B000676C653D25640D0A0000000098024042FB
:1014C0000000404210B588B0044601210846FFF7ED
:1014D0008FFA01214804FFF79BFA072202212248D4
:1014E000FFF7A7F9072203211F48FFF7A2F90C20F5
:1014F000069002208DF81C008DF81D0000208DF84C
:101500001E0001208DF81F0006A91748FFF749F9B2
:1015100002940020ADF80C00ADF80E00ADF81000FC
:10152000ADF814000C20ADF8120002A90F48FFF727
:1015300069FE01210D48FFF709FE012240F2255105
:101540000A48FFF739FE26208DF8040003208DF8A5
:1015500005008DF8060001208DF8070001A8FFF7AF
:10156000FFF908B010BD0000000002400044004038
:1015700010B588B0044601210846FFF739FA012169
:101580001020FFF755FA072209212248FFF751F9E9
:1015900007220A211F48FFF74CF94FF4C06006905C
:1015A00002208DF81C008DF81D0000208DF81E0013
:1015B00001208DF81F0006A91648FFF7F2F80294E3
:1015C0000020ADF80C00ADF80E00ADF81000ADF83D
:1015D00014000C20ADF8120002A90F48FFF712FE0C
:1015E00001210D48FFF7B2FD012240F225510A48C2
:1015F000FFF7E2FD25208DF8040003208DF805009B
:101600008DF8060001208DF8070001A8FFF7A8F962
:1016100008B010BD00000240001001404FF04070C3
:10162000E1EE100A70470000481600080000002094
:1016300024000000C40100086C16000824000020EB
:101640002C070000E0010008000000000102030474
:101650000102030406070809000000000000000062
:0C1660000000000000000000000000007E
:0400000508000231BC
:00000001FF
